:100000000A128A11FC2F00308A000408840A820731
:1000100000344B34453459345034413444343A3448
:020020000034AA
:100D5400F200720883120313870008148810081520
:100D64002130F1007630F000F00BB62EF10BB62EE8
:100D740000008312031308110800F20072088312A2
:100D8400031387000810881008152130F10076300D
:100D9400F000F00BCB2EF10BCB2E000083120313CB
:100DA4000811080038300A128A11BF260A128A1163
:100DB40006300A128A11BF260A128A110C300A124E
:100DC4008A11BF260A128A1101300A128A11BF261B
:100DD4000A128A110800F500F601012F760875073A
:100DE40084000A128A1103200A128A110A128A1133
:100DF400AA260A128A110130F4007408F60773084F
:100E04007602031C062F072FF02E08008316031307
:100E140087018801F03086000A128A11D4260A124A
:100E24008A1180300A128A11BF260A128A110730E9
:100E3400F30001300A128A11ED260A128A11C03019
:100E44000A128A11BF260A128A110A128A1130273D
:100E54000A128A112C2F0A128A11002883120313F2
:100E6400061486100611061E382F392F452F3130EF
:100E74000A128A11AA260A128A1183120313061A65
:100E8400442F452F3F2F861E482F492F552F34308E
:100E94000A128A11AA260A128A1183120313861AC5
:100EA400542F552F4F2F061F582F592F652F37308A
:100EB4000A128A11AA260A128A1183120313061B24
:100EC400642F652F5F2F861F682F692F752F2A3097
:100ED4000A128A11AA260A128A1183120313861B84
:100EE400742F752F6F2F061086140611061E7B2F84
:100EF4007C2F882F32300A128A11AA260A128A11EC
:100F040083120313061A872F882F822F861E8B2F96
:100F14008C2F982F35300A128A11AA260A128A11A8
:100F240083120313861A972F982F922F061F9B2F35
:100F34009C2FA82F38300A128A11AA260A128A1165
:100F440083120313061BA72FA82FA22F861FAB2FD4
:100F5400AC2FB82F30300A128A11AA260A128A112D
:100F640083120313861BB72FB82FB22F06108610D7
:100F74000615061EBE2FBF2FCB2F33300A128A113F
:100F8400AA260A128A1183120313061ACA2FCB2F18
:100F9400C52F861ECE2FCF2FDB2F36300A128A1193
:100FA400AA260A128A1183120313861ADA2FDB2F58
:100FB400D52F061FDE2FDF2FEB2F39300A128A11AF
:100FC400AA260A128A1183120313061BEA2FEB2F97
:100FD400E52F861FEE2FEF2FFB2F23300A128A11E5
:100FE400AA260A128A1183120313861BFA2FFB2FD7
:0C0FF400F52F080083010A128A11082F53
:08400000FF3FFF3FFF3FFF3FC0
:02400E00BA3FB7
:00000001FF
