:100000000A128A11FC2F00308A000408840A820731
:10001000003447344F34573444344134003452347C
:0A00200041344D34593441340034AA
:100E7000F500F6014C2F7608750784000A128A11D6
:100E800003200A128A110A128A11CB270A128A1128
:100E90000130F4007408F60773087602031C512F22
:100EA000522F3B2F080002300A128A119A270A1289
:100EB0008A1128300A128A119A270A128A110C30D4
:100EC0000A128A119A270A128A1106300A128A1106
:100ED0009A270A128A1101300A128A119A270A12D5
:100EE0008A1108008316031386010A128A115327F8
:100EF0000A128A1180300A128A119A270A128A115C
:100F00000530F30007300A128A1138270A128A11B5
:100F1000C0300A128A119A270A128A110530F3008A
:100F200001300A128A1138270A128A117A2F0A12FE
:100F30008A110028F2007208F03983120313860028
:100F40000610861006150D30F100FB30F000F00B96
:100F5000A72FF10BA72FAC2F8312031306117208D2
:100F6000F00003300310F00DFF3E031DB22F0310FD
:100F7000700DF03986000610861006150D30F10050
:100F8000FB30F000F00BC22FF10BC22FC72F8312E2
:100F9000031306110800F2007208F03983120313DC
:100FA00086000614861006150D30F100FB30F000A7
:100FB000F00BD82FF10BD82FDD2F8312031306115E
:100FC0007208F00003300310F00DFF3E031DE32F05
:100FD0000310700DF03986000614861006150D30CA
:100FE000F100FB30F000F00BF32FF10BF32FF82F93
:100FF000831203130611080083010A128A11722F4B
:08400000FF3FFF3FFF3FFF3FC0
:02400E00BA3FB7
:00000001FF
